:10F000000C9470780C94557B0C9482780C948278D4
:10F010000C9482780C9482780C9482780C94827888
:10F020000C9482780C9482780C9482780C94827878
:10F030000C9482780C9482780C9482780C94827868
:10F040000C9482780C9482780C94827B0C94827855
:10F050000C94397D0C94677D0C9482780C948278A2
:10F060000C9482780C9482780C9482780C94827838
:10F070005761697420736F6D65207365636F6E648B
:10F080007320666F7220636F6E66696720627574A5
:10F09000746F6E0A000B08105B11F81547191D1AE2
:10F0A0001C1BC71C001DB221B623EA002E012E0234
:10F0B00006030D04E905CA063D070C0B060D210EDB
:10F0C000650F5010C811931203153416011730182C
:10F0D0001819161B432156250026112D353EC30055
:10F0E00011241FBECFEFD0E1DEBFCDBF11E0A0E005
:10F0F000B1E001C01D92A839B107E1F70E94F37D8C
:10F100000C94617E0C94007898E09B01660F771F49
:10F1100087FD616037FF04C021E2622720E172278A
:10F12000880F915091F7CB0108959FB7F89485B758
:10F13000282F216025BF826085BF9FBF85B5826073
:10F1400085BD16BCEEE6F0E080818160808381E0C1
:10F150008DBB82E0809369000895CF93DF93F8948C
:10F16000F999FECF83E0FB0180935700E89507B63D
:10F1700000FCFDCF80E090E0C1E0DA01A80FB91FEC
:10F18000DC91FC01E60FF71F11963C9120E0D901BC
:10F19000AD0FB11D0D01C0935700E89511240296E3
:10F1A0008115F1E09F0749F785E0FB018093570047
:10F1B000E89507B600FCFDCF81E180935700E89504
:10F1C0007894DF91CF910895FC01218186E728276B
:10F1D0002183428132E008C02452DF01A80FB91F09
:10F1E0008C9128272C933F5F5081832F90E0351717
:10F1F00098F3E80FF91F8081842780830895FC012C
:10F20000918186E78927818382E006C02C91945200
:10F2100092279C938F5F922F2081A82FB0E0AE0F92
:10F22000BF1F821798F38C91928189278C93089540
:10F23000CF93DF93EC010E94E478F89460E0CE0174
:10F240000E94617C7894DF91CF910895CF93DF93F2
:10F25000CDB7DEB72B970FB6F894DEBF0FBECDBF8C
:10F26000FC018AE089836A8380E88B8382E08C8357
:10F27000809156018D83809157018E838091580132
:10F280008F83808188878181898782818A871B8695
:10F29000CE0101960E9418792B960FB6F894DEBF26
:10F2A0000FBECDBFDF91CF910895CF93DF93CDB740
:10F2B000DEB72B970FB6F894DEBF0FBECDBFFC01B3
:10F2C0008AE0898381818A8380E88B8392E09C83B2
:10F2D000909156019D83909157019E839091580182
:10F2E0009F83948198879581998796819A878B8748
:10F2F000CE0101960E9418792B960FB6F894DEBFC6
:10F300000FBECDBFDF91CF910895CF93DF9300D093
:10F310001F92CDB7DEB7FC01828185FF0BC08481CF
:10F32000898385818A8386818B836181CE01019661
:10F330000E9426790F900F900F90DF91CF91089542
:10F34000CF93DF93C0E0D0E06FEF7FEFFE018491B9
:10F350000E948478BC012196CE3FFFEEDF07B1F713
:10F3600080E00E948478BC0180E00E948478FE01E5
:10F370002591349141E02817390709F040E0842FA6
:10F38000DF91CF910895ECEFFFEE8591949181315B
:10F39000974419F4F8940E94807F5F98F89485B799
:10F3A000982F916095BF8D7F85BFE0E0F0E00994D4
:10F3B000CF93DF93CDB7DEB765970FB6F894DEBF76
:10F3C0000FBECDBF84E189831A821B8280E18C83CA
:10F3D000809156018D83809157018E8380915801D1
:10F3E0008F83188619861A861B86809148018C8720
:10F3F000809149018D8780914A018E8780914B01D0
:10F400008F8780914C01888B80914D01898B8091F1
:10F410004E018A8B80914F018B8B809150018C8B98
:10F42000809151018D8BCE0101960E9418796596CD
:10F430000FB6F894DEBF0FBECDBFDF91CF91089518
:10F44000289A07C0EFECF7E03197F1F700C0000011
:10F4500001970097B9F7289808C08FEC97E00197BB
:10F46000F1F700C000006150710961157105A9F73D
:10F4700008950E94A079811113C061E070E080EDD1
:10F4800097E00E94207AA8952EE088E190E00FB6E0
:10F49000F894A895809360000FBE20936000FFCF82
:10F4A000089580910001909101018133954720F0EA
:10F4B0000E94397A0C94C3790895CF93DF93CDB726
:10F4C000DEB7DA950FB6F894DEBF0FBECDBF10924F
:10F4D00001011092000100915D0110E00F5F1F4FCC
:10F4E000412C512C3201E12CF12CC12CD12C01C02A
:10F4F0008501312C0E94517A809102018823D1F339
:10F500008CE591E00E94FF781092020190916301D6
:10F51000809156019813EECF90916401809157012C
:10F520009813E8CF90916501809158019813E2CF2C
:10F5300080915F018A3CF1F6A0905D01B12CA0168C
:10F54000B106A1F0C8010196A816B90609F070C06D
:10F55000411451046104710409F46AC00150110995
:10F5600081E0481A51086108710862C031101FC05B
:10F5700090906601812C809167016401C80ED11CB6
:10F58000C11491E0D90609F0B3CFE0905C01F12CF1
:10F590008BE0E81AF108A70188E691E0BC01CE01F2
:10F5A00001960E94587E8501332433941AC020911D
:10F5B0005C0130E0295031095901AE0CBF1CCA145E
:10F5C000DB0408F496CF81E090E08C0F9D1FE80EDD
:10F5D000F91EA90186E691E0BC01C7010E94587E90
:10F5E000750180915E01803209F084CFEC14FD0436
:10F5F00009F07FCF289A962D852D742D6627AE01B0
:10F600004F5F5F4F0E94AD789FEF491A590A690A10
:10F61000790A0F5F1F4F1092010110920001289884
:10F6200060915D0189E591E00E942679670161CFD3
:10F6300058019ECF10920101109200010E94517A50
:10F64000809102018823D1F38CE591E00E94FF783C
:10F650001092020190916301809156019813EECFB0
:10F6600090916401809157019813E8CF90916501C2
:10F67000809158019813E2CF80915F018B3C81F417
:10F6800080916001809359018091610180935A01BA
:10F690008091620180935B018CE591E00C94857907
:10F6A0008CE591E00E945579C9CF1F920F920FB659
:10F6B0000F9211242F933F934F935F936F937F93F8
:10F6C0008F939F93AF93BF93EF93FF93F8948CE541
:10F6D00091E00E94247C882319F081E0809302014C
:10F6E0007894FF91EF91BF91AF919F918F917F910E
:10F6F0006F915F914F913F912F910F900FBE0F909F
:10F700001F9018951F920F920FB60F9211248F938E
:10F710009F9316BC809100019091010101969093F6
:10F720000101809300019F918F910F900FBE0F9068
:10F730001F9018958EBD0DB407FEFDCF8EB50895B0
:10F740002C982E99FECF0E949A7B2C9A089586E3DE
:10F750000E94A07B8AE30E94A07B89E30C94A07B9B
:10F76000EF92FF920F931F93CF93DF931F92CDB72A
:10F77000DEB7162F042F2C982E99FECF8064798344
:10F780000E949A7BE12E7981F72E05C0F7018191C5
:10F790007F010E949A7B8E2D811B8017B8F32C9AD3
:10F7A0000F90DF91CF911F910F91FF90EF900895EF
:10F7B000EF92FF920F931F93CF93DF931F92CDB7DA
:10F7C000DEB7182F042F2C982E99FECF862F806C31
:10F7D00099830E949A7BE12E9981F92E06C080E0E0
:10F7E0000E949A7BF70181937F018E2D811B8017E8
:10F7F000B0F32C9A0F90DF91CF911F910F91FF9052
:10F80000EF9008952C982E99FECF862B0E949A7B1C
:10F8100080E00E949A7B2C9A089560EC88E30C9417
:10F82000027C2C982E99FECF2C9A84E30E94A07B18
:10F830008FE697E10197F1F700C000000E940D7C70
:10F8400086FB882780F90895CF93DF93EC0160EC65
:10F850008BE30E94027C982F9F7711F187FD20C0D7
:10F8600060E88FE30E94027C88838D3308F018C023
:10F87000482F6FE3CE0101960E94D87B60E88FE3AA
:10F880000E94027C60E88FE30E94027C982F9F77A1
:10F8900090935501881F8827881F8093530101C0CA
:10F8A00018828AE30E94A07B86E30E94A07B84E307
:10F8B0000E94A07B8CE30E94A07B8881DF91CF9186
:10F8C00008950F931F93CF93DF931F92CDB7DEB7A9
:10F8D0008C0186E369830E94A07B8AE30E94A07B5F
:10F8E0008BE30E94A07B69816623A1F085E30E94DF
:10F8F000A07B2FEF81EE94E0215080409040E1F713
:10F9000000C00000EFEFF7EE23E0E150F0402040B0
:10F91000E1F704C08FEC97E00197F1F700C0000019
:10F92000F80140814F5FB8018FE30E94B07B8AE30A
:10F930000E94A07B85E30E94A07B18EC60EC85E32D
:10F940000E94027C8D3061F060EC85E30E94027CB5
:10F95000833131F4FAE1FA95F1F700C0115071F7F3
:10F960000F90DF91CF911F910F910895CF93DF9367
:10F970001F92CDB7DEB72C982E99FECF69830E94D7
:10F980009A7B6981862F0E949A7B2C9A0F90DF9137
:10F99000CF9108951F93CF93DF93182FF894249A53
:10F9A000259A2698279A52982C9A2F9A2D9880E576
:10F9B0008CBD2C9A80E58A95F1F72C9890E59A9564
:10F9C000F1F72C9A88E78A95F1F780E30E94A07BF3
:10F9D00087EC90E00197F1F700C00000C0E0D0E0B4
:10F9E000FE01E455FF406491FE01E555FF4084911E
:10F9F0000E94B67C2296C433D10591F711110AC03A
:10FA000083E30E94A07B8FE39FE10197F1F700C0A1
:10FA1000000011C0C0E0D0E0FE01EA56FF40649152
:10FA2000FE01EB56FF4084910E94B67C2296C631BF
:10FA3000D10591F7E5CF84E30E94A07B60EC85E3DC
:10FA40000E94027C8D30B9F760EC8EE30E94B67C98
:10FA500084E30E94A07B8CE30E94A07B8FE697E169
:10FA60000197F1F700C000007894DF91CF911F91CA
:10FA700008951F920F920FB60F9211242F938F9318
:10FA80009F93EF93FF938091C0009091C60088717F
:10FA9000E0910501EF5FEF7120910401E21739F069
:10FAA000E0930501F0E0E85FFE4F908301C082E043
:10FAB00090910301982B90930301FF91EF919F91F7
:10FAC0008F912F910F900FBE0F901F9018951F923E
:10FAD0000F920FB60F9211248F939F93EF93FF9382
:10FAE0009091070180910601981769F0E091060155
:10FAF000EF5FEF71E0930601F0E0E85DFE4F80817B
:10FB00008093C60005C08091C1008F7D8093C100A5
:10FB1000FF91EF919F918F910F900FBE0F901F90CB
:10FB2000189510920701109206011092050110928B
:10FB3000040197FF04C022E02093C0009F779093B8
:10FB4000C5008093C40088E98093C10086E080935B
:10FB5000C20008959091050180910401981781F0E9
:10FB6000E0910401EF5FEF71E0930401F0E0E85FE2
:10FB7000FE4F2081809103011092030130E002C00A
:10FB800020E031E0C9010895909107019F5F9F71C6
:10FB9000209106019217E1F3E92FF0E0E85DFE4FB6
:10FBA0008083909307018091C10080628093C1009F
:10FBB0000895CF93DF93EC0102C00E94C47D899128
:10FBC0008111FBCFDF91CF910895CF93DF93EC01AB
:10FBD00002C00E94C47DFE01219684918111F9CF5B
:10FBE000DF91CF910895C4B714BEA89588E10FB6F0
:10FBF000F89480936000109260000FBE209A68EC29
:10FC000070E089E190E00E94207A0E94957880E07F
:10FC10000E94CA7C57985F9A8AE18A95F1F700C0E2
:10FC20000E94A079182FC3FD03C04F9914C016C0BD
:10FC30008823D9F380E790EF0E94E57DC5E1D0E00D
:10FC40006FEE71E085E090E00E94207A4F9BEDCF4F
:10FC50002197B1F7EACF11110E94C37968EC70E0E7
:10FC600089E190E00E94207A43E050E060EF7EEF6F
:10FC700086E591E00E944F7E4AE050E063EF7EEF20
:10FC800088E491E00E944F7E0E94D8790E941A7BFE
:10FC900081E00E94CA7C0E941A7B0E945D7AFB016F
:10FCA000DC0102C005900D9241505040D8F70895F4
:10FCB000FB01DC0102C001900D9241505040D8F789
:06FCC0000895F894FFCF47
:0FFEF0001234564B45513030303030303100969F
:10FF000080E090EFB3E0C1E0D5E0A1E107B600FCEE
:10FF1000FDCFFC01B0935700E8959C01305FAC0128
:10FF20005F5EF90165917491F901F0510B01C09385
:10FF30005700E89511242E5F3F4F2417350789F7A6
:10FF4000FC01D0935700E89507B600FCFDCFA093C5
:10FF50005700E89593958115FFEF9F07B9F6E0E00C
:10FF6000FFEE83E080935700E8952EE088E190E073
:10FF70000FB6F894A895809360000FBE20936000A0
:02FF8000FFCFB1
:040000030000F00009
:00000001FF
