:107000000C946C380C94533B0C947E380C947E3862
:107010000C947E380C947E380C947E380C947E3818
:107020000C947E380C947E380C947E380C947E3808
:107030000C947E380C947E380C947E380C947E38F8
:107040000C94803B0C947E380C947E380C947E38E3
:107050000C94373D0C94653D0C947E380C947E382E
:107060000C947E380C947E385761697420736F6D70
:1070700065207365636F6E647320666F7220636F43
:107080006E66696720627574746F6E0A000B081073
:107090005B11F81547191D1A1C1BC71C001DB221D6
:1070A000B623EA002E012E0206030D04E905CA06E6
:1070B0003D070C0B060D210E650F5010C8119312E1
:1070C00003153416011730181819161B43215625BD
:1070D0000026112D353EC30011241FBECFEFD8E08E
:1070E000DEBFCDBF11E0A0E0B1E001C01D92A83924
:1070F000B107E1F70E94F13D0C945F3E0C9400381B
:1071000098E09B01660F771F87FD616037FF04C021
:1071100021E2622720E17227880F915091F7CB017D
:1071200008959FB7F89485B7282F216025BF826006
:1071300085BF9FBF85B5826085BD16BCEEE6F0E0D9
:1071400080818160808381E08DBB82E080936900D3
:107150000895CF93DF93F894F999FECF83E0FB0174
:1071600080935700E89507B600FCFDCF80E090E0E3
:10717000C1E0DA01A80FB91FDC91FC01E60FF71F8F
:1071800011963C9120E0D901AD0FB11D0D01C093C6
:107190005700E895112402968038910551F785E053
:1071A000FB0180935700E89507B600FCFDCF81E115
:1071B00080935700E8957894DF91CF910895FC0172
:1071C000218186E728272183428132E008C02452AA
:1071D000DF01A80FB91F8C9128272C933F5F5081A6
:1071E000832F90E0351798F3E80FF91F80818427EB
:1071F00080830895FC01918186E78927818382E05D
:1072000006C02C91945292279C938F5F922F2081DD
:10721000A82FB0E0AE0FBF1F821798F38C91928118
:1072200089278C930895CF93DF93EC010E94DF3878
:10723000F89460E0CE010E945F3C7894DF91CF919A
:107240000895CF93DF93CDB7DEB72B970FB6F894A1
:10725000DEBF0FBECDBFFC018AE089836A8380E870
:107260008B8382E08C83809156018D8380915701BE
:107270008E83809158018F8380818887818189875F
:1072800082818A871B86CE0101960E9413392B9634
:107290000FB6F894DEBF0FBECDBFDF91CF9108953A
:1072A000CF93DF93CDB7DEB72B970FB6F894DEBF41
:1072B0000FBECDBFFC018AE0898381818A8380E88B
:1072C0008B8392E09C83909156019D83909157010E
:1072D0009E83909158019F83948198879581998787
:1072E00096819A878B87CE0101960E9413392B963F
:1072F0000FB6F894DEBF0FBECDBFDF91CF910895DA
:10730000CF93DF9300D01F92CDB7DEB7FC0182810F
:1073100085FF0BC08481898385818A8386818B83E5
:107320006181CE0101960E9421390F900F900F903C
:10733000DF91CF910895CF93DF93C0E0D0E06FEF5E
:107340007FEFFE0184910E948038BC012196CE3FE0
:10735000FFE6DF07B1F780E00E948038BC0180E0E3
:107360000E948038FE012591349141E028173907A9
:1073700009F040E0842FDF91CF910895ECEFFFE614
:1073800085919491F8948131974411F40E94C03F03
:1073900085B7982F916095BF8D7F85BFE0E0F0E0C5
:1073A0000994CF93DF93CDB7DEB765970FB6F89406
:1073B000DEBF0FBECDBF84E189831A821B8280E1CC
:1073C0008C83809156018D83809157018E838091AB
:1073D00058018F83188619861A861B86809148016A
:1073E0008C87809149018D8780914A018E87809199
:1073F0004B018F8780914C01888B80914D01898B47
:1074000080914E018A8B80914F018B8B809150012E
:107410008C8B809151018D8BCE0101960E94133986
:1074200065960FB6F894DEBF0FBECDBFDF91CF914A
:1074300008955C9A07C0EFECF7E03197F1F700C0D0
:10744000000001970097B9F75C9808C08FEC97E0AF
:107450000197F1F700C000006150710961157105D5
:10746000A9F708950E949B39811113C061E070E073
:1074700080ED97E00E94193AA8952EE088E190E00F
:107480000FB6F894A895809360000FBE209360001B
:10749000FFCF0895809100019091010181339547BC
:1074A00020F00E94323A0C94BE390895CF93DF93B6
:1074B000CDB7DEB7C058D1090FB6F894DEBF0FBE06
:1074C000CDBF109201011092000100915D0110E00A
:1074D0000F5F1F4F212C312C2101E12CF12CC12CED
:1074E000D12CB12C0E944A3A809102018823D1F319
:1074F0008CE591E00E94FA381092020190916301AC
:10750000809156019813EECF9091640180915701BC
:107510009813E8CF90916501809158019813E2CFBC
:1075200080915F018A3CF1F680915D0190E08017C7
:10753000910799F098012F5F3F4F8217930779F4D5
:10754000211431044104510451F00150110921E08A
:10755000221A31084108510802C0B11023C090908E
:107560006601812C809167016401C80ED11C80E8FE
:10757000C816D10409F0B5CF80915C0190E08C3839
:1075800091050CF0AECF7C012BE0E21AF108A701C7
:1075900088E691E0BC01CE0101960E94563EBB24D4
:1075A000B3941AC060915C0170E0695071093B01AD
:1075B0006E0C7F1CC614D70408F493CF81E090E0D2
:1075C0008C0F9D1FE80EF91EAB0186E691E0BC0111
:1075D000C7010E94563E730180915E01803209F01E
:1075E00081CFEC14FD0409F07CCF5C9AC201B1019B
:1075F00057E0660F771F881F991F5A95D1F7AE0184
:107600004F5F5F4F0E94A9389FEF291A390A490A34
:10761000590A0F5F1F4F10920101109200015C98F0
:1076200060915D0189E591E00E942139670159CFA0
:1076300010920101109200010E944A3A80910201C9
:107640008823D1F38CE591E00E94FA381092020170
:1076500090916301809156019813EECF909164014F
:10766000809157019813E8CF90916501809158015E
:107670009813E2CF80915F018B3C81F4809160018F
:10768000809359018091610180935A018091620138
:1076900080935B018CE591E00C9480398CE591E05E
:1076A0000E945039C9CF1F920F920FB60F9211242A
:1076B0002F933F934F935F936F937F938F939F93FA
:1076C000AF93BF93EF93FF93F8948CE591E00E9402
:1076D000223C882319F081E0809302017894FF9185
:1076E000EF91BF91AF919F918F917F916F915F913A
:1076F0004F913F912F910F900FBE0F901F901895B3
:107700001F920F920FB60F9211248F939F9316BC66
:107710008091000190910101019690930101809365
:1077200000019F918F910F900FBE0F901F901895A1
:107730008EBD0DB407FEFDCF8EB508952A982C9905
:10774000FECF0E94983B2A9A089586E30E949E3BB2
:107750008AE30E949E3B89E30C949E3BEF92FF924A
:107760000F931F93CF93DF931F92CDB7DEB7162FE2
:10777000042F2A982C99FECF806479830E94983B2D
:10778000E12E7981F72E05C0F70181917F010E94DA
:10779000983B8E2D811B8017B8F32A9A0F90DF91AA
:1077A000CF911F910F91FF90EF900895EF92FF926C
:1077B0000F931F93CF93DF931F92CDB7DEB7182F90
:1077C000042F2A982C99FECF862F806C99830E94D3
:1077D000983BE12E9981F92E06C080E00E94983BEB
:1077E000F70181937F018E2D811B8017B0F32A9AB8
:1077F0000F90DF91CF911F910F91FF90EF9008951F
:107800002A982C99FECF862B0E94983B80E00E94FC
:10781000983B2A9A089560EC88E30C94003C2A98DF
:107820002C99FECF2A9A84E30E949E3B8FE697E133
:107830000197F1F700C000000E940B3C86FB8827EF
:1078400080F90895CF93DF93EC0160EC8BE30E9405
:10785000003C982F9F7711F187FD20C060E88FE3EF
:107860000E94003C88838D3308F018C0482F6FE3D6
:10787000CE0101960E94D63B60E88FE30E94003C57
:1078800060E88FE30E94003C982F9F77909355010A
:10789000881F8827881F8093530101C018828AE3BC
:1078A0000E949E3B86E30E949E3B84E30E949E3B97
:1078B0008CE30E949E3B8881DF91CF9108950F93C6
:1078C0001F93CF93DF931F92CDB7DEB78C0186E372
:1078D00069830E949E3B8AE30E949E3B8BE30E9449
:1078E0009E3B69816623A1F085E30E949E3B2FEFBA
:1078F00081EE94E0215080409040E1F700C000000C
:10790000EFEFF7EE23E0E150F0402040E1F704C054
:107910008FEC97E00197F1F700C00000F80140817B
:107920004F5FB8018FE30E94AE3B8AE30E949E3B0B
:1079300085E30E949E3B18EC60EC85E30E94003CCE
:107940008D3061F060EC85E30E94003C833131F4BE
:10795000FAE1FA95F1F700C0115071F70F90DF913D
:10796000CF911F910F910895CF93DF931F92CDB7C1
:10797000DEB72A982C99FECF69830E94983B6981D3
:10798000862F0E94983B2A9A0F90DF91CF910895FD
:107990001F93CF93DF93182FF894229A239A249859
:1079A000259A52982A9A2D9A2B9880E58CBD2A9A6E
:1079B00080E58A95F1F72A9890E59A95F1F72A9A49
:1079C00088E78A95F1F780E30E949E3B87EC90E080
:1079D0000197F1F700C00000C0E0D0E0FE01EC55D7
:1079E000FF486491FE01ED55FF4884910E94B43C2C
:1079F0002296C433D10591F711110AC083E30E9486
:107A00009E3B8FE39FE10197F1F700C0000011C09A
:107A1000C0E0D0E0FE01E257FF486491FE01E35769
:107A2000FF4884910E94B43C2296C631D10591F75B
:107A3000E5CF84E30E949E3B60EC85E30E94003C1E
:107A40008D30B9F760EC8EE30E94B43C84E30E9471
:107A50009E3B8CE30E949E3B8FE697E10197F1F7F6
:107A600000C000007894DF91CF911F9108951F927C
:107A70000F920FB60F9211242F938F939F93EF9332
:107A8000FF938091C0009091C6008871E09105013C
:107A9000EF5FEF7120910401E21739F0E0930501E7
:107AA000F0E0E85FFE4F908301C082E09091030117
:107AB000982B90930301FF91EF919F918F912F91BC
:107AC0000F900FBE0F901F9018951F920F920FB638
:107AD0000F9211248F939F93EF93FF93909107013F
:107AE00080910601981769F0E0910601EF5FEF7150
:107AF000E0930601F0E0E85DFE4F80818093C600D0
:107B000005C08091C1008F7D8093C100FF91EF91EE
:107B10009F918F910F900FBE0F901F90189510920C
:107B2000070110920601109205011092040197FFBF
:107B300004C022E02093C0009F779093C5008093FB
:107B4000C40088E98093C10086E08093C200089554
:107B50009091050180910401981781F0E091040152
:107B6000EF5FEF71E0930401F0E0E85FFE4F2081EA
:107B7000809103011092030130E002C020E031E067
:107B8000C9010895909107019F5F9F71209106019F
:107B90009217E1F3E92FF0E0E85DFE4F80839093C8
:107BA00007018091C10080628093C1000895CF9346
:107BB000DF93EC0102C00E94C23D89918111FBCF8D
:107BC000DF91CF910895CF93DF93EC0102C00E9423
:107BD000C23DFE01219684918111F9CFDF91CF91B1
:107BE0000895C4B714BEA89588E10FB6F8948093A1
:107BF0006000109260000FBE549A68EC70E089E15A
:107C000090E00E94193A0E94913880E00E94C83C9E
:107C10002098289A8AE18A95F1F700C00E949B3942
:107C2000182FC3FD03C0189914C016C08823D9F3B8
:107C300088E690E70E94E33DC5E1D0E06FEE71E099
:107C400085E090E00E94193A189BEDCF2197B1F79B
:107C5000EACF11110E94BE3968EC70E089E190E032
:107C60000E94193A43E050E060E77FE786E591E043
:107C70000E944D3E4AE050E063E77FE788E491E0F0
:107C80000E944D3E0E94D1390E94183B81E00E9423
:107C9000C83C0E94183B0E94563AFB01DC0102C01E
:107CA00005900D9241505040D8F70895FB01DC013A
:107CB00002C001900D9241505040D8F70895F894B9
:027CC000FFCFF4
:0F7F700011223353454E305448504C3032F101FA
:107F800080E090E7B3E0C1E0D5E0A1E107B600FCF6
:107F9000FDCFFC01B0935700E89520E030E0BC0134
:107FA0007057F901E60FF71F45915491F901E80F59
:107FB000F91F0A01C0935700E89511242E5F3F4F27
:107FC0002038310571F7FC01D0935700E89507B6CA
:107FD00000FCFDCFA0935700E89580589F4F811576
:107FE000FFE79F0799F6E0E8FFE683E080935700FC
:107FF000E8952EE088E190E00FB6F894A89580937C
:0A80000060000FBE20936000FFCF68
:040000030000700089
:00000001FF
