:10E000000C9456710C94AC740C9468710C946871F7
:10E010000C9468710C9468710C9468710C9468711C
:10E020000C9468710C9468710C9468710C9468710C
:10E030000C9468710C9468710C9468710C946871FC
:10E040000C9468710C9468710C94D9740C94687178
:10E050000C9490760C94BE760C9468710C94687154
:10E060000C9468710C9468710C9468710C946871CC
:10E07000537720746F2031306B0A000A41736B5361
:10E08000696E204F544120424C2056302E38200AD1
:10E090000A005761697420736F6D65207365636F43
:10E0A0006E647320666F7220636F6E6669672062AC
:10E0B0007574746F6E0A00537720746F203130309E
:10E0C0006B0A0054583A2041434B0A004352432004
:10E0D0004F4B0A00435243206661696C3A205265F7
:10E0E000626F6F740A005374617274204170700A19
:10E0F00000426F6F746C6F616465722053656C666B
:10E1000020557064617465210A0054696D656F75EE
:10E11000740A0054583A20626F6F746C6F616465C2
:10E12000722073657175656E63650A005761697465
:10E1300020666F72204342204D73670A00476F7458
:10E14000206461746120627574206E6F7420666F44
:10E15000722075730A00476F74206D736720746FA7
:10E1600020737461727420636F6E6669670A00536E
:10E170007461727420726563656976652066697280
:10E180006D776172650A00476F7420646174612065
:10E19000627574206E6F7420666F722075730A004A
:10E1A000476F74206F74686572206D73672074798F
:10E1B00070650A0052657472616E736D69742E2009
:10E1C00057696C6C207265666C617368210A004641
:10E1D0004154414C3A2057726F6E67206D73674906
:10E1E00064206465746563746564210A00426C6F21
:10E1F000636B206C656E677468206469666665721F
:10E20000207769746820706167652073697A650A90
:10E2100000476F74206D6F726520646174612074B3
:10E2200068616E20626C6F636B206C656E677468EA
:10E230000A00426C6F636B206C656E6774682061C6
:10E240006E6420626C6F636B20706F736974696FAA
:10E250006E20646F206E6F74206D617463680A00B5
:10E260002E000B08105B11F81547191D1A1C1BC74F
:10E270001C001DB221B623EA002E012E0206030D5A
:10E2800004E905CA063D070C0B060D210E650F506B
:10E2900010C81193120315341601173018181916E7
:10E2A0001B432156250026112D353EC311241FBEC8
:10E2B000CFEFD0E1DEBFCDBF11E0A0E0B1E001C003
:10E2C0001D92A839B107E1F70E944A770C94C877EC
:10E2D0000C94007098E09B01660F771F87FD6160CA
:10E2E00037FF04C021E2622720E17227880F915096
:10E2F00091F7CB0108959FB7F89485B7282F216037
:10E3000025BF826085BF9FBF85B5826085BD16BC75
:10E31000EEE6F0E080818160808381E08DBB82E069
:10E32000809369000895CF93DF93F894F999FECF15
:10E3300083E0FB0180935700E89507B600FCFDCF12
:10E3400080E090E0C1E0DA01A80FB91FDC91FC0188
:10E35000E60FF71F11963C9120E0D901AD0FB11DDA
:10E360000D01C0935700E895112402968115F1E044
:10E370009F0749F785E0FB0180935700E89507B6B2
:10E3800000FCFDCF81E180935700E8957894DF9100
:10E39000CF910895FC01218186E7282721834281BE
:10E3A00032E008C02452DF01A80FB91F8C91282742
:10E3B0002C933F5F5081832F90E0351798F3E80F3F
:10E3C000F91F8081842780830895FC01918186E76D
:10E3D0008927818382E006C02C91945292279C93D6
:10E3E0008F5F922F2081A82FB0E0AE0FBF1F821742
:10E3F00098F38C91928189278C930895CF93DF9322
:10E40000EC010E94CA71F89460E0CE010E94B875D8
:10E410007894DF91CF910895CF93DF93CDB7DEB796
:10E420002B970FB6F894DEBF0FBECDBFFC018AE07C
:10E4300089836A8380E88B8382E08C838091560194
:10E440008D83809157018E83809158018F838081C5
:10E4500088878181898782818A871B86CE01019680
:10E460000E94FE712B960FB6F894DEBF0FBECDBF93
:10E47000DF91CF910895CF93DF93CDB7DEB72B9780
:10E480000FB6F894DEBF0FBECDBFFC018AE08983D2
:10E4900081818A8380E88B8392E09C8390915601EE
:10E4A0009D83909157019E83909158019F83948101
:10E4B00098879581998796819A878B87CE01019657
:10E4C0000E94FE712B960FB6F894DEBF0FBECDBF33
:10E4D000DF91CF9108950F931F93CF93DF9300D0D7
:10E4E0001F92CDB7DEB78C01FC01828185FF10C081
:10E4F00083EC90EE0E943C77F801848189838581CA
:10E500008A8386818B836181CE0101960E940C7281
:10E510000F900F900F90DF91CF911F910F91089561
:10E52000CF93DF93C0E0D0E06FEF7FEFFE018491E7
:10E530000E946A71BC012196CE3FFFEDDF07B1F763
:10E5400080E00E946A71BC0180E00E946A71FE0155
:10E550002591349141E02817390709F040E0842FD4
:10E56000DF91CF91089586EE90EE0E943C772FE7E1
:10E570008AE196E0215080409040E1F700C0000021
:10E58000ECEFFFED859194918131974481F481EF17
:10E5900090EE0E943C77FFE72AE186E0F1502040B0
:10E5A0008040E1F700C00000F8940E94807F5F98EF
:10E5B000F89485B7982F916095BF8D7F85BFE0E077
:10E5C000F0E00994CF93DF93CDB7DEB765970FB630
:10E5D000F894DEBF0FBECDBF83E191EE0E943C7781
:10E5E00084E189831A821B8280E18C8380915601A9
:10E5F0008D83809157018E83809158018F83188677
:10E6000019861A861B86809148018C878091490162
:10E610008D8780914A018E8780914B018F878091F1
:10E620004C01888B80914D01898B80914E018A8BA2
:10E6300080914F018B8B809150018C8B8091510187
:10E640008D8BCE0101960E94FE7165960FB6F894EF
:10E65000DEBF0FBECDBFDF91CF910895289A07C0CE
:10E66000EFECF7E03197F1F700C000000197009759
:10E67000B9F7289808C08FEC97E00197F1F700C030
:10E6800000006150710961157105A9F708950E9494
:10E690009072882371F08CEC90EE0E943C772FE70B
:10E6A0008AE196E0215080409040E1F700C00000F0
:10E6B000089561E070E080ED97E00E942E73A895C8
:10E6C00084ED90EE0E943C772EE088E190E00FB65A
:10E6D000F894A895809360000FBE20936000FFCF50
:10E6E00080910001909101018133954788F08AE083
:10E6F00091EE0E943C778FE79AE126E081509040AE
:10E700002040E1F700C000000E9447730C94B372F0
:10E710000895CF93DF93CDB7DEB7DA950FB6F894AF
:10E72000DEBF0FBECDBF10920101109200018FE637
:10E7300091EE0E943C7700915D0110E00F5F1F4F4A
:10E74000412C512C3201E12CF12CC12CD12C912CDB
:10E750000E947073809102018823D1F38CE591E0CF
:10E760000E94E5711092020190916301809156011F
:10E7700098130CC09091640180915701981306C0C2
:10E780009091650180915801981719F087E891EEF2
:10E7900006C080915F018A3C29F080EA91EE0E94D8
:10E7A0003C77D6CFA0905D01B12CA016B106C9F080
:10E7B000C8010196A816B90679F441145104610400
:10E7C000710451F00150110981E0481A51086108A3
:10E7D000710884EB91EE02C08FEC91EE0E943C77C1
:10E7E00071C0911024C030906601212C8091670186
:10E7F0006101C80ED11CC11491E0D90631F08DEE33
:10E8000091EE0E943C778501A2CFE0905C01F12C53
:10E810008BE0E81AF108A70188E691E0BC01CE017F
:10E8200001960E94BF778501992493941CC0209182
:10E830005C0130E0295031095901AE0CBF1CCA14EB
:10E84000DB0418F481E192EE18C081E090E08C0FB7
:10E850009D1FE80EF91EA90186E691E0BC01C701E3
:10E860000E94BF77750180915E01803209F070CF00
:10E87000EC14FD0429F082E392EE0E943C7767CF0E
:10E8800080E692EE0E943C77289A962D852D742D75
:10E890006627AE014F5F5F4F0E9493719FEF491A49
:10E8A000590A690A790A0F5F1F4F109201011092ED
:10E8B0000001289860915D0189E591E00E940C7249
:10E8C000670145CF58018FCF8CE291EE0E943C77D3
:10E8D00010920101109200010E9470738091020158
:10E8E0008823D1F38CE591E00E94E571109202013A
:10E8F000909163018091560198130CC0909164012E
:10E9000080915701981306C090916501809158013C
:10E91000981729F08DE391EE0E943C77DDCF80912E
:10E920005F018B3CA1F486E591EE0E943C778091DB
:10E930006001809359018091610180935A01809117
:10E94000620180935B018CE591E00C946B728CE525
:10E9500091E00E943B72C0CF1F920F920FB60F92B0
:10E9600011242F933F934F935F936F937F938F93D4
:10E970009F93AF93BF93EF93FF93F8948CE591E04F
:10E980000E947B75882319F081E0809302017894BE
:10E99000FF91EF91BF91AF919F918F917F916F9177
:10E9A0005F914F913F912F910F900FBE0F901F904D
:10E9B00018951F920F920FB60F9211248F939F9369
:10E9C00016BC809100019091010101969093010184
:10E9D000809300019F918F910F900FBE0F901F9019
:10E9E00018958EBD0DB407FEFDCF8EB508952C98F9
:10E9F0002E99FECF0E94F1742C9A089586E30E940E
:10EA0000F7748AE30E94F77489E30C94F774EF9229
:10EA1000FF920F931F93CF93DF931F92CDB7DEB773
:10EA2000162F042F2C982E99FECF806479830E9494
:10EA3000F174E12E7981F72E05C0F70181917F01F4
:10EA40000E94F1748E2D811B8017B8F32C9A0F90C1
:10EA5000DF91CF911F910F91FF90EF900895EF926A
:10EA6000FF920F931F93CF93DF931F92CDB7DEB723
:10EA7000182F042F2C982E99FECF862F806C998307
:10EA80000E94F174E12E9981F92E06C080E00E9467
:10EA9000F174F70181937F018E2D811B8017B0F3F4
:10EAA0002C9A0F90DF91CF911F910F91FF90EF90D3
:10EAB00008952C982E99FECF862B0E94F17480E049
:10EAC0000E94F1742C9A089560EC88E30C945975B7
:10EAD0002C982E99FECF2C9A84E30E94F7748FE62F
:10EAE00097E10197F1F700C000000E94647586FB72
:10EAF000882780F90895CF93DF93EC0160EC8BE3D6
:10EB00000E945975982F9F7711F187FD20C060E80A
:10EB10008FE30E94597588838D3308F018C0482F01
:10EB20006FE3CE0101960E942F7560E88FE30E948B
:10EB3000597560E88FE30E945975982F9F779093DD
:10EB40005501881F8827881F8093530101C01882B0
:10EB50008AE30E94F77486E30E94F77484E30E94BC
:10EB6000F7748CE30E94F7748881DF91CF91089548
:10EB70000F931F93CF93DF931F92CDB7DEB78C0116
:10EB800086E369830E94F7748AE30E94F7748BE33B
:10EB90000E94F77469816623A1F085E30E94F774EF
:10EBA0002FEF81EE94E0215080409040E1F700C0CB
:10EBB0000000EFEFF7EE23E0E150F0402040E1F7F6
:10EBC00004C08FEC97E00197F1F700C00000F80156
:10EBD00040814F5FB8018FE30E9407758AE30E946E
:10EBE000F77485E30E94F77418EC60EC85E30E94EB
:10EBF00059758D3061F060EC85E30E945975833161
:10EC000031F4FAE1FA95F1F700C0115071F70F9065
:10EC1000DF91CF911F910F910895CF93DF931F92B2
:10EC2000CDB7DEB72C982E99FECF69830E94F17480
:10EC30006981862F0E94F1742C9A0F90DF91CF91F9
:10EC400008951F93CF93DF93182FF894249A259A51
:10EC50002698279A52982C9A2F9A2D9880E58CBD49
:10EC60002C9A80E58A95F1F72C9890E59A95F1F722
:10EC70002C9A88E78A95F1F780E30E94F77487EC75
:10EC800090E00197F1F700C00000C0E0D0E0FE0185
:10EC9000E758FD416491FE01E858FD4184910E94CE
:10ECA0000D762296C433D10591F711110AC083E382
:10ECB0000E94F7748FE39FE10197F1F700C0000015
:10ECC00011C0C0E0D0E0FE01ED59FD416491FE01AC
:10ECD000EE59FD4184910E940D762296C631D105F0
:10ECE00091F7E5CF84E30E94F77460EC85E30E941E
:10ECF00059758D30B9F760EC8EE30E940D7684E390
:10ED00000E94F7748CE30E94F7748FE697E10197F5
:10ED1000F1F700C000007894DF91CF911F91089522
:10ED20001F920F920FB60F9211242F938F939F93E0
:10ED3000EF93FF938091C0009091C6008871E0919D
:10ED40000501EF5FEF7120910401E21739F0E093C4
:10ED50000501F0E0E85FFE4F908301C082E09091F2
:10ED60000301982B90930301FF91EF919F918F9155
:10ED70002F910F900FBE0F901F9018951F920F921A
:10ED80000FB60F9211248F939F93EF93FF9390915F
:10ED9000070180910601981769F0E0910601EF5F85
:10EDA000EF71E0930601F0E0E85DFE4F8081809313
:10EDB000C60005C08091C1008F7D8093C100FF9186
:10EDC000EF919F918F910F900FBE0F901F9018950C
:10EDD0001092070110920601109205011092040191
:10EDE00097FF04C022E02093C0009F779093C50056
:10EDF0008093C40088E98093C10086E08093C200BC
:10EE000008959091050180910401981781F0E09197
:10EE10000401EF5FEF71E0930401F0E0E85FFE4F63
:10EE20002081809103011092030130E002C020E0B4
:10EE300031E0C9010895909107019F5F9F71209172
:10EE400006019217E1F3E92FF0E0E85DFE4F8083C1
:10EE5000909307018091C10080628093C100089562
:10EE6000CF93DF93EC0102C00E941B77899181113F
:10EE7000FBCFDF91CF910895CF93DF93EC0102C0D8
:10EE80000E941B77FE01219684918111F9CFDF91B9
:10EE9000CF910895C4B714BEA89588E10FB6F89431
:10EEA00080936000109260000FBE209A68EC70E0C2
:10EEB00089E190E00E942E730E947B7180E790EEC2
:10EEC0000E943C7780E00E94217688E090E00E94DA
:10EED000E8768BE790EE0E943C7757985F9A8AE13C
:10EEE0008A95F1F700C00E949072182FC3FD03C0ED
:10EEF0004F9914C016C08823D9F382E990EE0E947E
:10EF00003C77C5E1D0E06FEE71E085E090E00E94D3
:10EF10002E734F9BEDCF2197B1F7EACF11110E94CD
:10EF2000B37268EC70E089E190E00E942E7343E0D8
:10EF300050E060EF7EEF86E591E00E94B6774AE010
:10EF400050E063EF7EEF88E491E00E94B6770E9484
:10EF5000E2720E94647487EB90EE0E943C7781E03D
:10EF60000E9421760E9464740E948973FB01DC0177
:10EF700002C005900D9241505040D8F70895FB0112
:10EF8000DC0102C001900D9241505040D8F7089525
:04EF9000F894FFCF23
:0FFEF0001234564B45513030303030303100969F
:10FF000080E090E0D3E011E005E0C1E1BC01705277
:10FF1000FB01D0935700E895AC015395FC01A591E6
:10FF2000B491FC01F0520D0110935700E895112493
:10FF300002968417950791F7FB0100935700E89507
:10FF400007B600FCFDCFC0935700E89541155F410F
:10FF5000E9F6E0E0FFED83E080935700E8952EE0BE
:10FF600088E190E00FB6F894A895809360000FBEEA
:06FF700020936000FFCFAA
:040000030000E00019
:00000001FF
